{
  "_format": "hh-sol-artifact-1",
  "contractName": "MyEpicGame",
  "sourceName": "contracts/MyEpicGame.sol",
  "abi": [
    {
      "inputs": [
        {
          "internalType": "string[]",
          "name": "characterNames",
          "type": "string[]"
        },
        {
          "internalType": "string[]",
          "name": "characterImageURIs",
          "type": "string[]"
        },
        {
          "internalType": "uint256[]",
          "name": "characterHp",
          "type": "uint256[]"
        },
        {
          "internalType": "uint256[]",
          "name": "characterAttackDmg",
          "type": "uint256[]"
        },
        {
          "internalType": "string",
          "name": "bossName",
          "type": "string"
        },
        {
          "internalType": "string",
          "name": "bossImageURI",
          "type": "string"
        },
        {
          "internalType": "uint256",
          "name": "bossHp",
          "type": "uint256"
        },
        {
          "internalType": "uint256",
          "name": "bossAttackDamage",
          "type": "uint256"
        }
      ],
      "stateMutability": "nonpayable",
      "type": "constructor"
    },
    {
      "anonymous": false,
      "inputs": [
        {
          "indexed": true,
          "internalType": "address",
          "name": "owner",
          "type": "address"
        },
        {
          "indexed": true,
          "internalType": "address",
          "name": "approved",
          "type": "address"
        },
        {
          "indexed": true,
          "internalType": "uint256",
          "name": "tokenId",
          "type": "uint256"
        }
      ],
      "name": "Approval",
      "type": "event"
    },
    {
      "anonymous": false,
      "inputs": [
        {
          "indexed": true,
          "internalType": "address",
          "name": "owner",
          "type": "address"
        },
        {
          "indexed": true,
          "internalType": "address",
          "name": "operator",
          "type": "address"
        },
        {
          "indexed": false,
          "internalType": "bool",
          "name": "approved",
          "type": "bool"
        }
      ],
      "name": "ApprovalForAll",
      "type": "event"
    },
    {
      "anonymous": false,
      "inputs": [
        {
          "indexed": false,
          "internalType": "uint256",
          "name": "newBossHp",
          "type": "uint256"
        },
        {
          "indexed": false,
          "internalType": "uint256",
          "name": "newPlayerHp",
          "type": "uint256"
        }
      ],
      "name": "AttackComplete",
      "type": "event"
    },
    {
      "anonymous": false,
      "inputs": [
        {
          "indexed": false,
          "internalType": "address",
          "name": "sender",
          "type": "address"
        },
        {
          "indexed": false,
          "internalType": "uint256",
          "name": "tokenId",
          "type": "uint256"
        },
        {
          "indexed": false,
          "internalType": "uint256",
          "name": "characterIndex",
          "type": "uint256"
        }
      ],
      "name": "CharacterNFTMinted",
      "type": "event"
    },
    {
      "anonymous": false,
      "inputs": [
        {
          "indexed": true,
          "internalType": "address",
          "name": "from",
          "type": "address"
        },
        {
          "indexed": true,
          "internalType": "address",
          "name": "to",
          "type": "address"
        },
        {
          "indexed": true,
          "internalType": "uint256",
          "name": "tokenId",
          "type": "uint256"
        }
      ],
      "name": "Transfer",
      "type": "event"
    },
    {
      "inputs": [
        {
          "internalType": "address",
          "name": "to",
          "type": "address"
        },
        {
          "internalType": "uint256",
          "name": "tokenId",
          "type": "uint256"
        }
      ],
      "name": "approve",
      "outputs": [],
      "stateMutability": "nonpayable",
      "type": "function"
    },
    {
      "inputs": [],
      "name": "attackBoss",
      "outputs": [],
      "stateMutability": "nonpayable",
      "type": "function"
    },
    {
      "inputs": [
        {
          "internalType": "address",
          "name": "owner",
          "type": "address"
        }
      ],
      "name": "balanceOf",
      "outputs": [
        {
          "internalType": "uint256",
          "name": "",
          "type": "uint256"
        }
      ],
      "stateMutability": "view",
      "type": "function"
    },
    {
      "inputs": [],
      "name": "bigBoss",
      "outputs": [
        {
          "internalType": "string",
          "name": "name",
          "type": "string"
        },
        {
          "internalType": "string",
          "name": "imageURI",
          "type": "string"
        },
        {
          "internalType": "uint256",
          "name": "hp",
          "type": "uint256"
        },
        {
          "internalType": "uint256",
          "name": "maxHp",
          "type": "uint256"
        },
        {
          "internalType": "uint256",
          "name": "attackDamage",
          "type": "uint256"
        }
      ],
      "stateMutability": "view",
      "type": "function"
    },
    {
      "inputs": [],
      "name": "checkIfUserHadNFT",
      "outputs": [
        {
          "components": [
            {
              "internalType": "uint256",
              "name": "characterIndex",
              "type": "uint256"
            },
            {
              "internalType": "string",
              "name": "name",
              "type": "string"
            },
            {
              "internalType": "string",
              "name": "imageURI",
              "type": "string"
            },
            {
              "internalType": "uint256",
              "name": "hp",
              "type": "uint256"
            },
            {
              "internalType": "uint256",
              "name": "maxHp",
              "type": "uint256"
            },
            {
              "internalType": "uint256",
              "name": "attackDamage",
              "type": "uint256"
            }
          ],
          "internalType": "struct MyEpicGame.CharacterAttributes",
          "name": "",
          "type": "tuple"
        }
      ],
      "stateMutability": "view",
      "type": "function"
    },
    {
      "inputs": [],
      "name": "getAllDefaultCharacters",
      "outputs": [
        {
          "components": [
            {
              "internalType": "uint256",
              "name": "characterIndex",
              "type": "uint256"
            },
            {
              "internalType": "string",
              "name": "name",
              "type": "string"
            },
            {
              "internalType": "string",
              "name": "imageURI",
              "type": "string"
            },
            {
              "internalType": "uint256",
              "name": "hp",
              "type": "uint256"
            },
            {
              "internalType": "uint256",
              "name": "maxHp",
              "type": "uint256"
            },
            {
              "internalType": "uint256",
              "name": "attackDamage",
              "type": "uint256"
            }
          ],
          "internalType": "struct MyEpicGame.CharacterAttributes[]",
          "name": "",
          "type": "tuple[]"
        }
      ],
      "stateMutability": "view",
      "type": "function"
    },
    {
      "inputs": [],
      "name": "getAllPlayers",
      "outputs": [
        {
          "internalType": "address[]",
          "name": "",
          "type": "address[]"
        }
      ],
      "stateMutability": "view",
      "type": "function"
    },
    {
      "inputs": [
        {
          "internalType": "uint256",
          "name": "tokenId",
          "type": "uint256"
        }
      ],
      "name": "getApproved",
      "outputs": [
        {
          "internalType": "address",
          "name": "",
          "type": "address"
        }
      ],
      "stateMutability": "view",
      "type": "function"
    },
    {
      "inputs": [],
      "name": "getBigBoss",
      "outputs": [
        {
          "components": [
            {
              "internalType": "string",
              "name": "name",
              "type": "string"
            },
            {
              "internalType": "string",
              "name": "imageURI",
              "type": "string"
            },
            {
              "internalType": "uint256",
              "name": "hp",
              "type": "uint256"
            },
            {
              "internalType": "uint256",
              "name": "maxHp",
              "type": "uint256"
            },
            {
              "internalType": "uint256",
              "name": "attackDamage",
              "type": "uint256"
            }
          ],
          "internalType": "struct MyEpicGame.BigBoss",
          "name": "",
          "type": "tuple"
        }
      ],
      "stateMutability": "view",
      "type": "function"
    },
    {
      "inputs": [
        {
          "internalType": "address",
          "name": "_player",
          "type": "address"
        }
      ],
      "name": "getDamageOfPlayer",
      "outputs": [
        {
          "internalType": "uint256",
          "name": "",
          "type": "uint256"
        }
      ],
      "stateMutability": "view",
      "type": "function"
    },
    {
      "inputs": [],
      "name": "healCharacters",
      "outputs": [],
      "stateMutability": "payable",
      "type": "function"
    },
    {
      "inputs": [
        {
          "internalType": "address",
          "name": "owner",
          "type": "address"
        },
        {
          "internalType": "address",
          "name": "operator",
          "type": "address"
        }
      ],
      "name": "isApprovedForAll",
      "outputs": [
        {
          "internalType": "bool",
          "name": "",
          "type": "bool"
        }
      ],
      "stateMutability": "view",
      "type": "function"
    },
    {
      "inputs": [
        {
          "internalType": "uint256",
          "name": "_characterIndex",
          "type": "uint256"
        }
      ],
      "name": "mintCharacterNFT",
      "outputs": [],
      "stateMutability": "nonpayable",
      "type": "function"
    },
    {
      "inputs": [],
      "name": "name",
      "outputs": [
        {
          "internalType": "string",
          "name": "",
          "type": "string"
        }
      ],
      "stateMutability": "view",
      "type": "function"
    },
    {
      "inputs": [
        {
          "internalType": "uint256",
          "name": "",
          "type": "uint256"
        }
      ],
      "name": "nftHolderAttributes",
      "outputs": [
        {
          "internalType": "uint256",
          "name": "characterIndex",
          "type": "uint256"
        },
        {
          "internalType": "string",
          "name": "name",
          "type": "string"
        },
        {
          "internalType": "string",
          "name": "imageURI",
          "type": "string"
        },
        {
          "internalType": "uint256",
          "name": "hp",
          "type": "uint256"
        },
        {
          "internalType": "uint256",
          "name": "maxHp",
          "type": "uint256"
        },
        {
          "internalType": "uint256",
          "name": "attackDamage",
          "type": "uint256"
        }
      ],
      "stateMutability": "view",
      "type": "function"
    },
    {
      "inputs": [
        {
          "internalType": "address",
          "name": "",
          "type": "address"
        }
      ],
      "name": "nftHolderDamages",
      "outputs": [
        {
          "internalType": "uint256",
          "name": "",
          "type": "uint256"
        }
      ],
      "stateMutability": "view",
      "type": "function"
    },
    {
      "inputs": [
        {
          "internalType": "address",
          "name": "",
          "type": "address"
        }
      ],
      "name": "nftHolders",
      "outputs": [
        {
          "internalType": "uint256",
          "name": "",
          "type": "uint256"
        }
      ],
      "stateMutability": "view",
      "type": "function"
    },
    {
      "inputs": [
        {
          "internalType": "uint256",
          "name": "tokenId",
          "type": "uint256"
        }
      ],
      "name": "ownerOf",
      "outputs": [
        {
          "internalType": "address",
          "name": "",
          "type": "address"
        }
      ],
      "stateMutability": "view",
      "type": "function"
    },
    {
      "inputs": [
        {
          "internalType": "address",
          "name": "from",
          "type": "address"
        },
        {
          "internalType": "address",
          "name": "to",
          "type": "address"
        },
        {
          "internalType": "uint256",
          "name": "tokenId",
          "type": "uint256"
        }
      ],
      "name": "safeTransferFrom",
      "outputs": [],
      "stateMutability": "nonpayable",
      "type": "function"
    },
    {
      "inputs": [
        {
          "internalType": "address",
          "name": "from",
          "type": "address"
        },
        {
          "internalType": "address",
          "name": "to",
          "type": "address"
        },
        {
          "internalType": "uint256",
          "name": "tokenId",
          "type": "uint256"
        },
        {
          "internalType": "bytes",
          "name": "_data",
          "type": "bytes"
        }
      ],
      "name": "safeTransferFrom",
      "outputs": [],
      "stateMutability": "nonpayable",
      "type": "function"
    },
    {
      "inputs": [
        {
          "internalType": "address",
          "name": "operator",
          "type": "address"
        },
        {
          "internalType": "bool",
          "name": "approved",
          "type": "bool"
        }
      ],
      "name": "setApprovalForAll",
      "outputs": [],
      "stateMutability": "nonpayable",
      "type": "function"
    },
    {
      "inputs": [
        {
          "internalType": "bytes4",
          "name": "interfaceId",
          "type": "bytes4"
        }
      ],
      "name": "supportsInterface",
      "outputs": [
        {
          "internalType": "bool",
          "name": "",
          "type": "bool"
        }
      ],
      "stateMutability": "view",
      "type": "function"
    },
    {
      "inputs": [],
      "name": "symbol",
      "outputs": [
        {
          "internalType": "string",
          "name": "",
          "type": "string"
        }
      ],
      "stateMutability": "view",
      "type": "function"
    },
    {
      "inputs": [
        {
          "internalType": "uint256",
          "name": "_tokenId",
          "type": "uint256"
        }
      ],
      "name": "tokenURI",
      "outputs": [
        {
          "internalType": "string",
          "name": "",
          "type": "string"
        }
      ],
      "stateMutability": "view",
      "type": "function"
    },
    {
      "inputs": [
        {
          "internalType": "address",
          "name": "from",
          "type": "address"
        },
        {
          "internalType": "address",
          "name": "to",
          "type": "address"
        },
        {
          "internalType": "uint256",
          "name": "tokenId",
          "type": "uint256"
        }
      ],
      "name": "transferFrom",
      "outputs": [],
      "stateMutability": "nonpayable",
      "type": "function"
    }
  ],
  "bytecode": "0x60806040523480156200001157600080fd5b5060405162005e7138038062005e71833981810160405281019062000037919062000a85565b6040518060400160405280600681526020017f4865726f657300000000000000000000000000000000000000000000000000008152506040518060400160405280600481526020017f4845524f000000000000000000000000000000000000000000000000000000008152508160009080519060200190620000bb929190620007ed565b508060019080519060200190620000d4929190620007ed565b5050506040518060a0016040528085815260200184815260200183815260200183815260200182815250600660008201518160000190805190602001906200011e929190620007ed565b5060208201518160010190805190602001906200013d929190620007ed565b50604082015181600201556060820151816003015560808201518160040155905050620002c06040518060600160405280602a815260200162005e47602a9139600660000180546200018f9062000e08565b80601f0160208091040260200160405190810160405280929190818152602001828054620001bd9062000e08565b80156200020e5780601f10620001e2576101008083540402835291602001916200020e565b820191906000526020600020905b815481529060010190602001808311620001f057829003601f168201915b5050505050600660020154600660010180546200022b9062000e08565b80601f0160208091040260200160405190810160405280929190818152602001828054620002599062000e08565b8015620002aa5780601f106200027e57610100808354040283529160200191620002aa565b820191906000526020600020905b8154815290600101906020018083116200028c57829003601f168201915b50505050506200070260201b620020681760201c565b60005b8851811015620006dc57600c6040518060c001604052808381526020018b84815181106200031a577f4e487b7100000000000000000000000000000000000000000000000000000000600052603260045260246000fd5b602002602001015181526020018a848151811062000361577f4e487b7100000000000000000000000000000000000000000000000000000000600052603260045260246000fd5b60200260200101518152602001898481518110620003a8577f4e487b7100000000000000000000000000000000000000000000000000000000600052603260045260246000fd5b60200260200101518152602001898481518110620003ef577f4e487b7100000000000000000000000000000000000000000000000000000000600052603260045260246000fd5b6020026020010151815260200188848151811062000436577f4e487b7100000000000000000000000000000000000000000000000000000000600052603260045260246000fd5b6020026020010151815250908060018154018082558091505060019003906000526020600020906006020160009091909190915060008201518160000155602082015181600101908051906020019062000492929190620007ed565b506040820151816002019080519060200190620004b1929190620007ed565b50606082015181600301556080820151816004015560a0820151816005015550506000600c82815481106200050f577f4e487b7100000000000000000000000000000000000000000000000000000000600052603260045260246000fd5b90600052602060002090600602016040518060c001604052908160008201548152602001600182018054620005449062000e08565b80601f0160208091040260200160405190810160405280929190818152602001828054620005729062000e08565b8015620005c35780601f106200059757610100808354040283529160200191620005c3565b820191906000526020600020905b815481529060010190602001808311620005a557829003601f168201915b50505050508152602001600282018054620005de9062000e08565b80601f01602080910402602001604051908101604052809291908181526020018280546200060c9062000e08565b80156200065d5780601f1062000631576101008083540402835291602001916200065d565b820191906000526020600020905b8154815290600101906020018083116200063f57829003601f168201915b5050505050815260200160038201548152602001600482015481526020016005820154815250509050620006c460405180606001604052806025815260200162005e22602591398260200151836060015184604001516200070260201b620020681760201c565b50600181620006d4919062000d6b565b9050620002c3565b50620006f4600b620007ae60201b6200210a1760201c565b505050505050505062000f2c565b620007a8848484846040516024016200071f949392919062000c30565b6040516020818303038152906040527f8d142cdd000000000000000000000000000000000000000000000000000000007bffffffffffffffffffffffffffffffffffffffffffffffffffffffff19166020820180517bffffffffffffffffffffffffffffffffffffffffffffffffffffffff8381831617835250505050620007c460201b60201c565b50505050565b6001816000016000828254019250508190555050565b60008151905060006a636f6e736f6c652e6c6f679050602083016000808483855afa5050505050565b828054620007fb9062000e08565b90600052602060002090601f0160209004810192826200081f57600085556200086b565b82601f106200083a57805160ff19168380011785556200086b565b828001600101855582156200086b579182015b828111156200086a5782518255916020019190600101906200084d565b5b5090506200087a91906200087e565b5090565b5b80821115620008995760008160009055506001016200087f565b5090565b6000620008b4620008ae8462000cbb565b62000c92565b90508083825260208201905082856020860282011115620008d457600080fd5b60005b858110156200092357815167ffffffffffffffff811115620008f857600080fd5b80860162000907898262000a41565b85526020850194506020840193505050600181019050620008d7565b5050509392505050565b6000620009446200093e8462000cea565b62000c92565b905080838252602082019050828560208602820111156200096457600080fd5b60005b858110156200099857816200097d888262000a6e565b84526020840193506020830192505060018101905062000967565b5050509392505050565b6000620009b9620009b38462000d19565b62000c92565b905082815260208101848484011115620009d257600080fd5b620009df84828562000dd2565b509392505050565b600082601f830112620009f957600080fd5b815162000a0b8482602086016200089d565b91505092915050565b600082601f83011262000a2657600080fd5b815162000a388482602086016200092d565b91505092915050565b600082601f83011262000a5357600080fd5b815162000a65848260208601620009a2565b91505092915050565b60008151905062000a7f8162000f12565b92915050565b600080600080600080600080610100898b03121562000aa357600080fd5b600089015167ffffffffffffffff81111562000abe57600080fd5b62000acc8b828c01620009e7565b985050602089015167ffffffffffffffff81111562000aea57600080fd5b62000af88b828c01620009e7565b975050604089015167ffffffffffffffff81111562000b1657600080fd5b62000b248b828c0162000a14565b965050606089015167ffffffffffffffff81111562000b4257600080fd5b62000b508b828c0162000a14565b955050608089015167ffffffffffffffff81111562000b6e57600080fd5b62000b7c8b828c0162000a41565b94505060a089015167ffffffffffffffff81111562000b9a57600080fd5b62000ba88b828c0162000a41565b93505060c062000bbb8b828c0162000a6e565b92505060e062000bce8b828c0162000a6e565b9150509295985092959890939650565b600062000beb8262000d4f565b62000bf7818562000d5a565b935062000c0981856020860162000dd2565b62000c148162000f01565b840191505092915050565b62000c2a8162000dc8565b82525050565b6000608082019050818103600083015262000c4c818762000bde565b9050818103602083015262000c62818662000bde565b905062000c73604083018562000c1f565b818103606083015262000c87818462000bde565b905095945050505050565b600062000c9e62000cb1565b905062000cac828262000e3e565b919050565b6000604051905090565b600067ffffffffffffffff82111562000cd95762000cd862000ed2565b5b602082029050602081019050919050565b600067ffffffffffffffff82111562000d085762000d0762000ed2565b5b602082029050602081019050919050565b600067ffffffffffffffff82111562000d375762000d3662000ed2565b5b62000d428262000f01565b9050602081019050919050565b600081519050919050565b600082825260208201905092915050565b600062000d788262000dc8565b915062000d858362000dc8565b9250827fffffffffffffffffffffffffffffffffffffffffffffffffffffffffffffffff0382111562000dbd5762000dbc62000e74565b5b828201905092915050565b6000819050919050565b60005b8381101562000df257808201518184015260208101905062000dd5565b8381111562000e02576000848401525b50505050565b6000600282049050600182168062000e2157607f821691505b6020821081141562000e385762000e3762000ea3565b5b50919050565b62000e498262000f01565b810181811067ffffffffffffffff8211171562000e6b5762000e6a62000ed2565b5b80604052505050565b7f4e487b7100000000000000000000000000000000000000000000000000000000600052601160045260246000fd5b7f4e487b7100000000000000000000000000000000000000000000000000000000600052602260045260246000fd5b7f4e487b7100000000000000000000000000000000000000000000000000000000600052604160045260246000fd5b6000601f19601f8301169050919050565b62000f1d8162000dc8565b811462000f2957600080fd5b50565b614ee68062000f3c6000396000f3fe6080604052600436106101665760003560e01c806395d89b41116100d1578063b9eec8631161008a578063e97cd6a511610064578063e97cd6a51461054c578063e985e9c514610589578063efa1c482146105c6578063f8b81ef7146105f157610166565b8063b9eec863146104bb578063c87b56dd146104f8578063d4f24c5b1461053557610166565b806395d89b41146103a257806398da4c95146103cd578063a22cb4651461040f578063a9c3267914610438578063b88d4fde14610467578063b953084e1461049057610166565b806334875d6b1161012357806334875d6b1461028d57806342842e0e146102b85780636352211e146102e157806370a082311461031e5780637b8d7eea1461035b5780637df124a11461036557610166565b806301ffc9a71461016b5780630665f961146101a857806306fdde03146101d3578063081812fc146101fe578063095ea7b31461023b57806323b872dd14610264575b600080fd5b34801561017757600080fd5b50610192600480360381019061018d91906134db565b61061a565b60405161019f9190613e0a565b60405180910390f35b3480156101b457600080fd5b506101bd6106fc565b6040516101ca91906141c3565b60405180910390f35b3480156101df57600080fd5b506101e8610858565b6040516101f59190613e25565b60405180910390f35b34801561020a57600080fd5b506102256004803603810190610220919061352d565b6108ea565b6040516102329190613d28565b60405180910390f35b34801561024757600080fd5b50610262600480360381019061025d919061349f565b61096f565b005b34801561027057600080fd5b5061028b60048036038101906102869190613399565b610a87565b005b34801561029957600080fd5b506102a2610ae7565b6040516102af91906141e5565b60405180910390f35b3480156102c457600080fd5b506102df60048036038101906102da9190613399565b610cbf565b005b3480156102ed57600080fd5b506103086004803603810190610303919061352d565b610cdf565b6040516103159190613d28565b60405180910390f35b34801561032a57600080fd5b5061034560048036038101906103409190613334565b610d91565b6040516103529190614207565b60405180910390f35b610363610e49565b005b34801561037157600080fd5b5061038c60048036038101906103879190613334565b610f41565b6040516103999190614207565b60405180910390f35b3480156103ae57600080fd5b506103b7610f59565b6040516103c49190613e25565b60405180910390f35b3480156103d957600080fd5b506103f460048036038101906103ef919061352d565b610feb565b60405161040696959493929190614222565b60405180910390f35b34801561041b57600080fd5b5061043660048036038101906104319190613463565b611137565b005b34801561044457600080fd5b5061044d61114d565b60405161045e959493929190613ef4565b60405180910390f35b34801561047357600080fd5b5061048e600480360381019061048991906133e8565b611281565b005b34801561049c57600080fd5b506104a56112e3565b6040516104b29190613de8565b60405180910390f35b3480156104c757600080fd5b506104e260048036038101906104dd9190613334565b61148e565b6040516104ef9190614207565b60405180910390f35b34801561050457600080fd5b5061051f600480360381019061051a919061352d565b6114a6565b60405161052c9190613e25565b60405180910390f35b34801561054157600080fd5b5061054a6116c1565b005b34801561055857600080fd5b50610573600480360381019061056e9190613334565b611aa6565b6040516105809190614207565b60405180910390f35b34801561059557600080fd5b506105b060048036038101906105ab919061335d565b611aef565b6040516105bd9190613e0a565b60405180910390f35b3480156105d257600080fd5b506105db611b83565b6040516105e89190613dc6565b60405180910390f35b3480156105fd57600080fd5b506106186004803603810190610613919061352d565b611c11565b005b60007f80ac58cd000000000000000000000000000000000000000000000000000000007bffffffffffffffffffffffffffffffffffffffffffffffffffffffff1916827bffffffffffffffffffffffffffffffffffffffffffffffffffffffff191614806106e557507f5b5e139f000000000000000000000000000000000000000000000000000000007bffffffffffffffffffffffffffffffffffffffffffffffffffffffff1916827bffffffffffffffffffffffffffffffffffffffffffffffffffffffff1916145b806106f557506106f482612120565b5b9050919050565b61070461315b565b60066040518060a0016040529081600082018054610721906145a1565b80601f016020809104026020016040519081016040528092919081815260200182805461074d906145a1565b801561079a5780601f1061076f5761010080835404028352916020019161079a565b820191906000526020600020905b81548152906001019060200180831161077d57829003601f168201915b505050505081526020016001820180546107b3906145a1565b80601f01602080910402602001604051908101604052809291908181526020018280546107df906145a1565b801561082c5780601f106108015761010080835404028352916020019161082c565b820191906000526020600020905b81548152906001019060200180831161080f57829003601f168201915b505050505081526020016002820154815260200160038201548152602001600482015481525050905090565b606060008054610867906145a1565b80601f0160208091040260200160405190810160405280929190818152602001828054610893906145a1565b80156108e05780601f106108b5576101008083540402835291602001916108e0565b820191906000526020600020905b8154815290600101906020018083116108c357829003601f168201915b5050505050905090565b60006108f58261218a565b610934576040517f08c379a000000000000000000000000000000000000000000000000000000000815260040161092b90614123565b60405180910390fd5b6004600083815260200190815260200160002060009054906101000a900473ffffffffffffffffffffffffffffffffffffffff169050919050565b600061097a82610cdf565b90508073ffffffffffffffffffffffffffffffffffffffff168373ffffffffffffffffffffffffffffffffffffffff1614156109eb576040517f08c379a00000000000000000000000000000000000000000000000000000000081526004016109e290614163565b60405180910390fd5b8073ffffffffffffffffffffffffffffffffffffffff16610a0a6121f6565b73ffffffffffffffffffffffffffffffffffffffff161480610a395750610a3881610a336121f6565b611aef565b5b610a78576040517f08c379a0000000000000000000000000000000000000000000000000000000008152600401610a6f906140a3565b60405180910390fd5b610a8283836121fe565b505050565b610a98610a926121f6565b826122b7565b610ad7576040517f08c379a0000000000000000000000000000000000000000000000000000000008152600401610ace906141a3565b60405180910390fd5b610ae2838383612395565b505050565b610aef61318a565b6000600f60003373ffffffffffffffffffffffffffffffffffffffff1673ffffffffffffffffffffffffffffffffffffffff1681526020019081526020016000205490506000811115610cae57600d60008281526020019081526020016000206040518060c001604052908160008201548152602001600182018054610b74906145a1565b80601f0160208091040260200160405190810160405280929190818152602001828054610ba0906145a1565b8015610bed5780601f10610bc257610100808354040283529160200191610bed565b820191906000526020600020905b815481529060010190602001808311610bd057829003601f168201915b50505050508152602001600282018054610c06906145a1565b80601f0160208091040260200160405190810160405280929190818152602001828054610c32906145a1565b8015610c7f5780601f10610c5457610100808354040283529160200191610c7f565b820191906000526020600020905b815481529060010190602001808311610c6257829003601f168201915b505050505081526020016003820154815260200160048201548152602001600582015481525050915050610cbc565b610cb661318a565b80925050505b90565b610cda83838360405180602001604052806000815250611281565b505050565b6000806002600084815260200190815260200160002060009054906101000a900473ffffffffffffffffffffffffffffffffffffffff169050600073ffffffffffffffffffffffffffffffffffffffff168173ffffffffffffffffffffffffffffffffffffffff161415610d88576040517f08c379a0000000000000000000000000000000000000000000000000000000008152600401610d7f906140e3565b60405180910390fd5b80915050919050565b60008073ffffffffffffffffffffffffffffffffffffffff168273ffffffffffffffffffffffffffffffffffffffff161415610e02576040517f08c379a0000000000000000000000000000000000000000000000000000000008152600401610df9906140c3565b60405180910390fd5b600360008373ffffffffffffffffffffffffffffffffffffffff1673ffffffffffffffffffffffffffffffffffffffff168152602001908152602001600020549050919050565b66038d7ea4c680003414610e92576040517f08c379a0000000000000000000000000000000000000000000000000000000008152600401610e8990614143565b60405180910390fd5b6000600f60003373ffffffffffffffffffffffffffffffffffffffff1673ffffffffffffffffffffffffffffffffffffffff1681526020019081526020016000205490506000600d6000838152602001908152602001600020905080600401548160030181905550610f3d6040518060400160405280600581526020017f6e6577487000000000000000000000000000000000000000000000000000000081525082600301546125fc565b5050565b600f6020528060005260406000206000915090505481565b606060018054610f68906145a1565b80601f0160208091040260200160405190810160405280929190818152602001828054610f94906145a1565b8015610fe15780601f10610fb657610100808354040283529160200191610fe1565b820191906000526020600020905b815481529060010190602001808311610fc457829003601f168201915b5050505050905090565b600d602052806000526040600020600091509050806000015490806001018054611014906145a1565b80601f0160208091040260200160405190810160405280929190818152602001828054611040906145a1565b801561108d5780601f106110625761010080835404028352916020019161108d565b820191906000526020600020905b81548152906001019060200180831161107057829003601f168201915b5050505050908060020180546110a2906145a1565b80601f01602080910402602001604051908101604052809291908181526020018280546110ce906145a1565b801561111b5780601f106110f05761010080835404028352916020019161111b565b820191906000526020600020905b8154815290600101906020018083116110fe57829003601f168201915b5050505050908060030154908060040154908060050154905086565b6111496111426121f6565b8383612698565b5050565b600680600001805461115e906145a1565b80601f016020809104026020016040519081016040528092919081815260200182805461118a906145a1565b80156111d75780601f106111ac576101008083540402835291602001916111d7565b820191906000526020600020905b8154815290600101906020018083116111ba57829003601f168201915b5050505050908060010180546111ec906145a1565b80601f0160208091040260200160405190810160405280929190818152602001828054611218906145a1565b80156112655780601f1061123a57610100808354040283529160200191611265565b820191906000526020600020905b81548152906001019060200180831161124857829003601f168201915b5050505050908060020154908060030154908060040154905085565b61129261128c6121f6565b836122b7565b6112d1576040517f08c379a00000000000000000000000000000000000000000000000000000000081526004016112c8906141a3565b60405180910390fd5b6112dd84848484612805565b50505050565b6060600c805480602002602001604051908101604052809291908181526020016000905b8282101561148557838290600052602060002090600602016040518060c001604052908160008201548152602001600182018054611344906145a1565b80601f0160208091040260200160405190810160405280929190818152602001828054611370906145a1565b80156113bd5780601f10611392576101008083540402835291602001916113bd565b820191906000526020600020905b8154815290600101906020018083116113a057829003601f168201915b505050505081526020016002820180546113d6906145a1565b80601f0160208091040260200160405190810160405280929190818152602001828054611402906145a1565b801561144f5780601f106114245761010080835404028352916020019161144f565b820191906000526020600020905b81548152906001019060200180831161143257829003601f168201915b50505050508152602001600382015481526020016004820154815260200160058201548152505081526020019060010190611307565b50505050905090565b600e6020528060005260406000206000915090505481565b60606000600d60008481526020019081526020016000206040518060c0016040529081600082015481526020016001820180546114e2906145a1565b80601f016020809104026020016040519081016040528092919081815260200182805461150e906145a1565b801561155b5780601f106115305761010080835404028352916020019161155b565b820191906000526020600020905b81548152906001019060200180831161153e57829003601f168201915b50505050508152602001600282018054611574906145a1565b80601f01602080910402602001604051908101604052809291908181526020018280546115a0906145a1565b80156115ed5780601f106115c2576101008083540402835291602001916115ed565b820191906000526020600020905b8154815290600101906020018083116115d057829003601f168201915b505050505081526020016003820154815260200160048201548152602001600582015481525050905060006116258260600151612861565b905060006116368360800151612861565b905060006116478460a00151612861565b9050600061168d856020015161165c89612861565b876040015187878760405160200161167996959493929190613c61565b604051602081830303815290604052612a0e565b90506000816040516020016116a29190613d06565b6040516020818303038152906040529050809650505050505050919050565b6000600f60003373ffffffffffffffffffffffffffffffffffffffff1673ffffffffffffffffffffffffffffffffffffffff1681526020019081526020016000205490506000600d600083815260200190815260200160002090506117d46040518060600160405280603c8152602001614e75603c9139826001018054611747906145a1565b80601f0160208091040260200160405190810160405280929190818152602001828054611773906145a1565b80156117c05780601f10611795576101008083540402835291602001916117c0565b820191906000526020600020905b8154815290600101906020018083116117a357829003601f168201915b505050505083600301548460050154612bcc565b6118ac6040518060400160405280601b81526020017f426f73732025732068617320257320485020616e6420257320414400000000008152506006600001805461181d906145a1565b80601f0160208091040260200160405190810160405280929190818152602001828054611849906145a1565b80156118965780601f1061186b57610100808354040283529160200191611896565b820191906000526020600020905b81548152906001019060200180831161187957829003601f168201915b5050505050600660020154600660040154612bcc565b60008160030154116118f3576040517f08c379a00000000000000000000000000000000000000000000000000000000081526004016118ea90614183565b60405180910390fd5b60006006600201541161193b576040517f08c379a000000000000000000000000000000000000000000000000000000000815260040161193290614003565b60405180910390fd5b8060050154600660020154101561195c57600060066002018190555061197b565b806005015460066002015461197191906144b7565b6006600201819055505b6006600401548160030154101561199b57600081600301819055506119b9565b60066004015481600301546119b091906144b7565b81600301819055505b8060050154600e60003373ffffffffffffffffffffffffffffffffffffffff1673ffffffffffffffffffffffffffffffffffffffff1681526020019081526020016000206000828254611a0c91906143d6565b92505081905550611a3a604051806060016040528060258152602001614dba602591396006600201546125fc565b611a60604051806060016040528060288152602001614e1f6028913982600301546125fc565b7f838ab28464562786a6c4ab2311964b82fa60bd9b14aa7e856af1f3f18d41a4146006600201548260030154604051611a9a929190614291565b60405180910390a15050565b6000600e60008373ffffffffffffffffffffffffffffffffffffffff1673ffffffffffffffffffffffffffffffffffffffff168152602001908152602001600020549050919050565b6000600560008473ffffffffffffffffffffffffffffffffffffffff1673ffffffffffffffffffffffffffffffffffffffff16815260200190815260200160002060008373ffffffffffffffffffffffffffffffffffffffff1673ffffffffffffffffffffffffffffffffffffffff16815260200190815260200160002060009054906101000a900460ff16905092915050565b60606010805480602002602001604051908101604052809291908181526020018280548015611c0757602002820191906000526020600020905b8160009054906101000a900473ffffffffffffffffffffffffffffffffffffffff1673ffffffffffffffffffffffffffffffffffffffff1681526020019060010190808311611bbd575b5050505050905090565b6000611c1d600b612c6e565b9050611c293382612c7c565b6040518060c00160405280838152602001600c8481548110611c74577f4e487b7100000000000000000000000000000000000000000000000000000000600052603260045260246000fd5b90600052602060002090600602016001018054611c90906145a1565b80601f0160208091040260200160405190810160405280929190818152602001828054611cbc906145a1565b8015611d095780601f10611cde57610100808354040283529160200191611d09565b820191906000526020600020905b815481529060010190602001808311611cec57829003601f168201915b50505050508152602001600c8481548110611d4d577f4e487b7100000000000000000000000000000000000000000000000000000000600052603260045260246000fd5b90600052602060002090600602016002018054611d69906145a1565b80601f0160208091040260200160405190810160405280929190818152602001828054611d95906145a1565b8015611de25780601f10611db757610100808354040283529160200191611de2565b820191906000526020600020905b815481529060010190602001808311611dc557829003601f168201915b50505050508152602001600c8481548110611e26577f4e487b7100000000000000000000000000000000000000000000000000000000600052603260045260246000fd5b9060005260206000209060060201600301548152602001600c8481548110611e77577f4e487b7100000000000000000000000000000000000000000000000000000000600052603260045260246000fd5b9060005260206000209060060201600401548152602001600c8481548110611ec8577f4e487b7100000000000000000000000000000000000000000000000000000000600052603260045260246000fd5b906000526020600020906006020160050154815250600d6000838152602001908152602001600020600082015181600001556020820151816001019080519060200190611f169291906131c0565b506040820151816002019080519060200190611f339291906131c0565b50606082015181600301556080820151816004015560a08201518160050155905050611f786040518060600160405280602e8152602001614e47602e91398284612c9a565b80600f60003373ffffffffffffffffffffffffffffffffffffffff1673ffffffffffffffffffffffffffffffffffffffff168152602001908152602001600020819055506010339080600181540180825580915050600190039060005260206000200160009091909190916101000a81548173ffffffffffffffffffffffffffffffffffffffff021916908373ffffffffffffffffffffffffffffffffffffffff160217905550612029600b61210a565b7f4bc303fd457a97b4691b9af582ce71868a3d258638c8d4f8c60988a0f0bfb8cd33828460405161205c93929190613d8f565b60405180910390a15050565b612104848484846040516024016120829493929190613e47565b6040516020818303038152906040527f8d142cdd000000000000000000000000000000000000000000000000000000007bffffffffffffffffffffffffffffffffffffffffffffffffffffffff19166020820180517bffffffffffffffffffffffffffffffffffffffffffffffffffffffff8381831617835250505050612d39565b50505050565b6001816000016000828254019250508190555050565b60007f01ffc9a7000000000000000000000000000000000000000000000000000000007bffffffffffffffffffffffffffffffffffffffffffffffffffffffff1916827bffffffffffffffffffffffffffffffffffffffffffffffffffffffff1916149050919050565b60008073ffffffffffffffffffffffffffffffffffffffff166002600084815260200190815260200160002060009054906101000a900473ffffffffffffffffffffffffffffffffffffffff1673ffffffffffffffffffffffffffffffffffffffff1614159050919050565b600033905090565b816004600083815260200190815260200160002060006101000a81548173ffffffffffffffffffffffffffffffffffffffff021916908373ffffffffffffffffffffffffffffffffffffffff160217905550808273ffffffffffffffffffffffffffffffffffffffff1661227183610cdf565b73ffffffffffffffffffffffffffffffffffffffff167f8c5be1e5ebec7d5bd14f71427d1e84f3dd0314c0f7b2291e5b200ac8c7c3b92560405160405180910390a45050565b60006122c28261218a565b612301576040517f08c379a00000000000000000000000000000000000000000000000000000000081526004016122f890614083565b60405180910390fd5b600061230c83610cdf565b90508073ffffffffffffffffffffffffffffffffffffffff168473ffffffffffffffffffffffffffffffffffffffff16148061237b57508373ffffffffffffffffffffffffffffffffffffffff16612363846108ea565b73ffffffffffffffffffffffffffffffffffffffff16145b8061238c575061238b8185611aef565b5b91505092915050565b8273ffffffffffffffffffffffffffffffffffffffff166123b582610cdf565b73ffffffffffffffffffffffffffffffffffffffff161461240b576040517f08c379a000000000000000000000000000000000000000000000000000000000815260040161240290613fe3565b60405180910390fd5b600073ffffffffffffffffffffffffffffffffffffffff168273ffffffffffffffffffffffffffffffffffffffff16141561247b576040517f08c379a000000000000000000000000000000000000000000000000000000000815260040161247290614043565b60405180910390fd5b612486838383612d62565b6124916000826121fe565b6001600360008573ffffffffffffffffffffffffffffffffffffffff1673ffffffffffffffffffffffffffffffffffffffff16815260200190815260200160002060008282546124e191906144b7565b925050819055506001600360008473ffffffffffffffffffffffffffffffffffffffff1673ffffffffffffffffffffffffffffffffffffffff168152602001908152602001600020600082825461253891906143d6565b92505081905550816002600083815260200190815260200160002060006101000a81548173ffffffffffffffffffffffffffffffffffffffff021916908373ffffffffffffffffffffffffffffffffffffffff160217905550808273ffffffffffffffffffffffffffffffffffffffff168473ffffffffffffffffffffffffffffffffffffffff167fddf252ad1be2c89b69c2b068fc378daa952ba7f163c4a11628f55a4df523b3ef60405160405180910390a46125f7838383612d67565b505050565b6126948282604051602401612612929190613f55565b6040516020818303038152906040527f9710a9d0000000000000000000000000000000000000000000000000000000007bffffffffffffffffffffffffffffffffffffffffffffffffffffffff19166020820180517bffffffffffffffffffffffffffffffffffffffffffffffffffffffff8381831617835250505050612d39565b5050565b8173ffffffffffffffffffffffffffffffffffffffff168373ffffffffffffffffffffffffffffffffffffffff161415612707576040517f08c379a00000000000000000000000000000000000000000000000000000000081526004016126fe90614063565b60405180910390fd5b80600560008573ffffffffffffffffffffffffffffffffffffffff1673ffffffffffffffffffffffffffffffffffffffff16815260200190815260200160002060008473ffffffffffffffffffffffffffffffffffffffff1673ffffffffffffffffffffffffffffffffffffffff16815260200190815260200160002060006101000a81548160ff0219169083151502179055508173ffffffffffffffffffffffffffffffffffffffff168373ffffffffffffffffffffffffffffffffffffffff167f17307eab39ab6107e8899845ad3d59bd9653f200f220920489ca2b5937696c31836040516127f89190613e0a565b60405180910390a3505050565b612810848484612395565b61281c84848484612d6c565b61285b576040517f08c379a000000000000000000000000000000000000000000000000000000000815260040161285290613fc3565b60405180910390fd5b50505050565b606060008214156128a9576040518060400160405280600181526020017f30000000000000000000000000000000000000000000000000000000000000008152509050612a09565b600082905060005b600082146128db5780806128c490614604565b915050600a826128d4919061442c565b91506128b1565b60008167ffffffffffffffff81111561291d577f4e487b7100000000000000000000000000000000000000000000000000000000600052604160045260246000fd5b6040519080825280601f01601f19166020018201604052801561294f5781602001600182028036833780820191505090505b5090505b60008514612a025760018261296891906144b7565b9150600a85612977919061464d565b603061298391906143d6565b60f81b8183815181106129bf577f4e487b7100000000000000000000000000000000000000000000000000000000600052603260045260246000fd5b60200101907effffffffffffffffffffffffffffffffffffffffffffffffffffffffffffff1916908160001a905350600a856129fb919061442c565b9450612953565b8093505050505b919050565b60606000825190506000811415612a375760405180602001604052806000815250915050612bc7565b60006003600283612a4891906143d6565b612a52919061442c565b6004612a5e919061445d565b90506000602082612a6f91906143d6565b67ffffffffffffffff811115612aae577f4e487b7100000000000000000000000000000000000000000000000000000000600052604160045260246000fd5b6040519080825280601f01601f191660200182016040528015612ae05781602001600182028036833780820191505090505b5090506000604051806060016040528060408152602001614ddf604091399050600181016020830160005b86811015612b845760038101905062ffffff818a015116603f8160121c168401518060081b905060ff603f83600c1c1686015116810190508060081b905060ff603f8360061c1686015116810190508060081b905060ff603f831686015116810190508060e01b90508084526004840193505050612b0b565b506003860660018114612b9e5760028114612bae57612bb9565b613d3d60f01b6002830352612bb9565b603d60f81b60018303525b508484525050819450505050505b919050565b612c6884848484604051602401612be69493929190613ea1565b6040516020818303038152906040527fd5cf17d0000000000000000000000000000000000000000000000000000000007bffffffffffffffffffffffffffffffffffffffffffffffffffffffff19166020820180517bffffffffffffffffffffffffffffffffffffffffffffffffffffffff8381831617835250505050612d39565b50505050565b600081600001549050919050565b612c96828260405180602001604052806000815250612f03565b5050565b612d34838383604051602401612cb293929190613f85565b6040516020818303038152906040527f969cdd03000000000000000000000000000000000000000000000000000000007bffffffffffffffffffffffffffffffffffffffffffffffffffffffff19166020820180517bffffffffffffffffffffffffffffffffffffffffffffffffffffffff8381831617835250505050612d39565b505050565b60008151905060006a636f6e736f6c652e6c6f679050602083016000808483855afa5050505050565b505050565b505050565b6000612d8d8473ffffffffffffffffffffffffffffffffffffffff16612f5e565b15612ef6578373ffffffffffffffffffffffffffffffffffffffff1663150b7a02612db66121f6565b8786866040518563ffffffff1660e01b8152600401612dd89493929190613d43565b602060405180830381600087803b158015612df257600080fd5b505af1925050508015612e2357506040513d601f19601f82011682018060405250810190612e209190613504565b60015b612ea6573d8060008114612e53576040519150601f19603f3d011682016040523d82523d6000602084013e612e58565b606091505b50600081511415612e9e576040517f08c379a0000000000000000000000000000000000000000000000000000000008152600401612e9590613fc3565b60405180910390fd5b805181602001fd5b63150b7a0260e01b7bffffffffffffffffffffffffffffffffffffffffffffffffffffffff1916817bffffffffffffffffffffffffffffffffffffffffffffffffffffffff191614915050612efb565b600190505b949350505050565b612f0d8383612f81565b612f1a6000848484612d6c565b612f59576040517f08c379a0000000000000000000000000000000000000000000000000000000008152600401612f5090613fc3565b60405180910390fd5b505050565b6000808273ffffffffffffffffffffffffffffffffffffffff163b119050919050565b600073ffffffffffffffffffffffffffffffffffffffff168273ffffffffffffffffffffffffffffffffffffffff161415612ff1576040517f08c379a0000000000000000000000000000000000000000000000000000000008152600401612fe890614103565b60405180910390fd5b612ffa8161218a565b1561303a576040517f08c379a000000000000000000000000000000000000000000000000000000000815260040161303190614023565b60405180910390fd5b61304660008383612d62565b6001600360008473ffffffffffffffffffffffffffffffffffffffff1673ffffffffffffffffffffffffffffffffffffffff168152602001908152602001600020600082825461309691906143d6565b92505081905550816002600083815260200190815260200160002060006101000a81548173ffffffffffffffffffffffffffffffffffffffff021916908373ffffffffffffffffffffffffffffffffffffffff160217905550808273ffffffffffffffffffffffffffffffffffffffff16600073ffffffffffffffffffffffffffffffffffffffff167fddf252ad1be2c89b69c2b068fc378daa952ba7f163c4a11628f55a4df523b3ef60405160405180910390a461315760008383612d67565b5050565b6040518060a0016040528060608152602001606081526020016000815260200160008152602001600081525090565b6040518060c001604052806000815260200160608152602001606081526020016000815260200160008152602001600081525090565b8280546131cc906145a1565b90600052602060002090601f0160209004810192826131ee5760008555613235565b82601f1061320757805160ff1916838001178555613235565b82800160010185558215613235579182015b82811115613234578251825591602001919060010190613219565b5b5090506132429190613246565b5090565b5b8082111561325f576000816000905550600101613247565b5090565b6000613276613271846142df565b6142ba565b90508281526020810184848401111561328e57600080fd5b61329984828561455f565b509392505050565b6000813590506132b081614d5d565b92915050565b6000813590506132c581614d74565b92915050565b6000813590506132da81614d8b565b92915050565b6000815190506132ef81614d8b565b92915050565b600082601f83011261330657600080fd5b8135613316848260208601613263565b91505092915050565b60008135905061332e81614da2565b92915050565b60006020828403121561334657600080fd5b6000613354848285016132a1565b91505092915050565b6000806040838503121561337057600080fd5b600061337e858286016132a1565b925050602061338f858286016132a1565b9150509250929050565b6000806000606084860312156133ae57600080fd5b60006133bc868287016132a1565b93505060206133cd868287016132a1565b92505060406133de8682870161331f565b9150509250925092565b600080600080608085870312156133fe57600080fd5b600061340c878288016132a1565b945050602061341d878288016132a1565b935050604061342e8782880161331f565b925050606085013567ffffffffffffffff81111561344b57600080fd5b613457878288016132f5565b91505092959194509250565b6000806040838503121561347657600080fd5b6000613484858286016132a1565b9250506020613495858286016132b6565b9150509250929050565b600080604083850312156134b257600080fd5b60006134c0858286016132a1565b92505060206134d18582860161331f565b9150509250929050565b6000602082840312156134ed57600080fd5b60006134fb848285016132cb565b91505092915050565b60006020828403121561351657600080fd5b6000613524848285016132e0565b91505092915050565b60006020828403121561353f57600080fd5b600061354d8482850161331f565b91505092915050565b60006135628383613582565b60208301905092915050565b600061357a8383613b23565b905092915050565b61358b816144eb565b82525050565b61359a816144eb565b82525050565b60006135ab82614330565b6135b58185614376565b93506135c083614310565b8060005b838110156135f15781516135d88882613556565b97506135e38361435c565b9250506001810190506135c4565b5085935050505092915050565b60006136098261433b565b6136138185614387565b93508360208202850161362585614320565b8060005b858110156136615784840389528151613642858261356e565b945061364d83614369565b925060208a01995050600181019050613629565b50829750879550505050505092915050565b61367c816144fd565b82525050565b600061368d82614346565b6136978185614398565b93506136a781856020860161456e565b6136b08161473a565b840191505092915050565b60006136c682614351565b6136d081856143a9565b93506136e081856020860161456e565b6136e98161473a565b840191505092915050565b60006136ff82614351565b61370981856143ba565b935061371981856020860161456e565b6137228161473a565b840191505092915050565b600061373882614351565b61374281856143cb565b935061375281856020860161456e565b80840191505092915050565b600061376b600b836143cb565b91506137768261474b565b600b82019050919050565b600061378e6032836143ba565b915061379982614774565b604082019050919050565b60006137b16025836143ba565b91506137bc826147c3565b604082019050919050565b60006137d4601b836143ba565b91506137df82614812565b602082019050919050565b60006137f7601c836143ba565b91506138028261483b565b602082019050919050565b600061381a600e836143cb565b915061382582614864565b600e82019050919050565b600061383d6024836143ba565b91506138488261488d565b604082019050919050565b60006138606019836143ba565b915061386b826148dc565b602082019050919050565b6000613883602c836143ba565b915061388e82614905565b604082019050919050565b60006138a66038836143ba565b91506138b182614954565b604082019050919050565b60006138c9602a836143ba565b91506138d4826149a3565b604082019050919050565b60006138ec6029836143ba565b91506138f7826149f2565b604082019050919050565b600061390f6004836143cb565b915061391a82614a41565b600482019050919050565b60006139326020836143ba565b915061393d82614a6a565b602082019050919050565b6000613955602c836143ba565b915061396082614a93565b604082019050919050565b60006139786016836143ba565b915061398382614ae2565b602082019050919050565b600061399b600a836143cb565b91506139a682614b0b565b600a82019050919050565b60006139be6021836143ba565b91506139c982614b34565b604082019050919050565b60006139e16018836143ba565b91506139ec82614b83565b602082019050919050565b6000613a04601d836143cb565b9150613a0f82614bac565b601d82019050919050565b6000613a276069836143cb565b9150613a3282614bd5565b606982019050919050565b6000613a4a6031836143ba565b9150613a5582614c70565b604082019050919050565b6000613a6d603d836143cb565b9150613a7882614cbf565b603d82019050919050565b6000613a90602d836143cb565b9150613a9b82614d0e565b602d82019050919050565b600060a0830160008301518482036000860152613ac382826136bb565b91505060208301518482036020860152613add82826136bb565b9150506040830151613af26040860182613c43565b506060830151613b056060860182613c43565b506080830151613b186080860182613c43565b508091505092915050565b600060c083016000830151613b3b6000860182613c43565b5060208301518482036020860152613b5382826136bb565b91505060408301518482036040860152613b6d82826136bb565b9150506060830151613b826060860182613c43565b506080830151613b956080860182613c43565b5060a0830151613ba860a0860182613c43565b508091505092915050565b600060c083016000830151613bcb6000860182613c43565b5060208301518482036020860152613be382826136bb565b91505060408301518482036040860152613bfd82826136bb565b9150506060830151613c126060860182613c43565b506080830151613c256080860182613c43565b5060a0830151613c3860a0860182613c43565b508091505092915050565b613c4c81614555565b82525050565b613c5b81614555565b82525050565b6000613c6c8261398e565b9150613c78828961372d565b9150613c838261375e565b9150613c8f828861372d565b9150613c9a82613a1a565b9150613ca6828761372d565b9150613cb182613a60565b9150613cbd828661372d565b9150613cc88261380d565b9150613cd4828561372d565b9150613cdf82613a83565b9150613ceb828461372d565b9150613cf682613902565b9150819050979650505050505050565b6000613d11826139f7565b9150613d1d828461372d565b915081905092915050565b6000602082019050613d3d6000830184613591565b92915050565b6000608082019050613d586000830187613591565b613d656020830186613591565b613d726040830185613c52565b8181036060830152613d848184613682565b905095945050505050565b6000606082019050613da46000830186613591565b613db16020830185613c52565b613dbe6040830184613c52565b949350505050565b60006020820190508181036000830152613de081846135a0565b905092915050565b60006020820190508181036000830152613e0281846135fe565b905092915050565b6000602082019050613e1f6000830184613673565b92915050565b60006020820190508181036000830152613e3f81846136f4565b905092915050565b60006080820190508181036000830152613e6181876136f4565b90508181036020830152613e7581866136f4565b9050613e846040830185613c52565b8181036060830152613e9681846136f4565b905095945050505050565b60006080820190508181036000830152613ebb81876136f4565b90508181036020830152613ecf81866136f4565b9050613ede6040830185613c52565b613eeb6060830184613c52565b95945050505050565b600060a0820190508181036000830152613f0e81886136f4565b90508181036020830152613f2281876136f4565b9050613f316040830186613c52565b613f3e6060830185613c52565b613f4b6080830184613c52565b9695505050505050565b60006040820190508181036000830152613f6f81856136f4565b9050613f7e6020830184613c52565b9392505050565b60006060820190508181036000830152613f9f81866136f4565b9050613fae6020830185613c52565b613fbb6040830184613c52565b949350505050565b60006020820190508181036000830152613fdc81613781565b9050919050565b60006020820190508181036000830152613ffc816137a4565b9050919050565b6000602082019050818103600083015261401c816137c7565b9050919050565b6000602082019050818103600083015261403c816137ea565b9050919050565b6000602082019050818103600083015261405c81613830565b9050919050565b6000602082019050818103600083015261407c81613853565b9050919050565b6000602082019050818103600083015261409c81613876565b9050919050565b600060208201905081810360008301526140bc81613899565b9050919050565b600060208201905081810360008301526140dc816138bc565b9050919050565b600060208201905081810360008301526140fc816138df565b9050919050565b6000602082019050818103600083015261411c81613925565b9050919050565b6000602082019050818103600083015261413c81613948565b9050919050565b6000602082019050818103600083015261415c8161396b565b9050919050565b6000602082019050818103600083015261417c816139b1565b9050919050565b6000602082019050818103600083015261419c816139d4565b9050919050565b600060208201905081810360008301526141bc81613a3d565b9050919050565b600060208201905081810360008301526141dd8184613aa6565b905092915050565b600060208201905081810360008301526141ff8184613bb3565b905092915050565b600060208201905061421c6000830184613c52565b92915050565b600060c0820190506142376000830189613c52565b818103602083015261424981886136f4565b9050818103604083015261425d81876136f4565b905061426c6060830186613c52565b6142796080830185613c52565b61428660a0830184613c52565b979650505050505050565b60006040820190506142a66000830185613c52565b6142b36020830184613c52565b9392505050565b60006142c46142d5565b90506142d082826145d3565b919050565b6000604051905090565b600067ffffffffffffffff8211156142fa576142f961470b565b5b6143038261473a565b9050602081019050919050565b6000819050602082019050919050565b6000819050602082019050919050565b600081519050919050565b600081519050919050565b600081519050919050565b600081519050919050565b6000602082019050919050565b6000602082019050919050565b600082825260208201905092915050565b600082825260208201905092915050565b600082825260208201905092915050565b600082825260208201905092915050565b600082825260208201905092915050565b600081905092915050565b60006143e182614555565b91506143ec83614555565b9250827fffffffffffffffffffffffffffffffffffffffffffffffffffffffffffffffff038211156144215761442061467e565b5b828201905092915050565b600061443782614555565b915061444283614555565b925082614452576144516146ad565b5b828204905092915050565b600061446882614555565b915061447383614555565b9250817fffffffffffffffffffffffffffffffffffffffffffffffffffffffffffffffff04831182151516156144ac576144ab61467e565b5b828202905092915050565b60006144c282614555565b91506144cd83614555565b9250828210156144e0576144df61467e565b5b828203905092915050565b60006144f682614535565b9050919050565b60008115159050919050565b60007fffffffff0000000000000000000000000000000000000000000000000000000082169050919050565b600073ffffffffffffffffffffffffffffffffffffffff82169050919050565b6000819050919050565b82818337600083830152505050565b60005b8381101561458c578082015181840152602081019050614571565b8381111561459b576000848401525b50505050565b600060028204905060018216806145b957607f821691505b602082108114156145cd576145cc6146dc565b5b50919050565b6145dc8261473a565b810181811067ffffffffffffffff821117156145fb576145fa61470b565b5b80604052505050565b600061460f82614555565b91507fffffffffffffffffffffffffffffffffffffffffffffffffffffffffffffffff8214156146425761464161467e565b5b600182019050919050565b600061465882614555565b915061466383614555565b925082614673576146726146ad565b5b828206905092915050565b7f4e487b7100000000000000000000000000000000000000000000000000000000600052601160045260246000fd5b7f4e487b7100000000000000000000000000000000000000000000000000000000600052601260045260246000fd5b7f4e487b7100000000000000000000000000000000000000000000000000000000600052602260045260246000fd5b7f4e487b7100000000000000000000000000000000000000000000000000000000600052604160045260246000fd5b6000601f19601f8301169050919050565b7f202d2d204e465420233a20000000000000000000000000000000000000000000600082015250565b7f4552433732313a207472616e7366657220746f206e6f6e20455243373231526560008201527f63656976657220696d706c656d656e7465720000000000000000000000000000602082015250565b7f4552433732313a207472616e736665722066726f6d20696e636f72726563742060008201527f6f776e6572000000000000000000000000000000000000000000000000000000602082015250565b7f4572726f723a20426f737320697320616c726561647920646561640000000000600082015250565b7f4552433732313a20746f6b656e20616c7265616479206d696e74656400000000600082015250565b7f2c20226d61785f76616c7565223a000000000000000000000000000000000000600082015250565b7f4552433732313a207472616e7366657220746f20746865207a65726f2061646460008201527f7265737300000000000000000000000000000000000000000000000000000000602082015250565b7f4552433732313a20617070726f766520746f2063616c6c657200000000000000600082015250565b7f4552433732313a206f70657261746f7220717565727920666f72206e6f6e657860008201527f697374656e7420746f6b656e0000000000000000000000000000000000000000602082015250565b7f4552433732313a20617070726f76652063616c6c6572206973206e6f74206f7760008201527f6e6572206e6f7220617070726f76656420666f7220616c6c0000000000000000602082015250565b7f4552433732313a2062616c616e636520717565727920666f7220746865207a6560008201527f726f206164647265737300000000000000000000000000000000000000000000602082015250565b7f4552433732313a206f776e657220717565727920666f72206e6f6e657869737460008201527f656e7420746f6b656e0000000000000000000000000000000000000000000000602082015250565b7f7d205d7d00000000000000000000000000000000000000000000000000000000600082015250565b7f4552433732313a206d696e7420746f20746865207a65726f2061646472657373600082015250565b7f4552433732313a20617070726f76656420717565727920666f72206e6f6e657860008201527f697374656e7420746f6b656e0000000000000000000000000000000000000000602082015250565b7f596f75206d7573742070617920302e3030312065746800000000000000000000600082015250565b7f7b226e616d65223a202200000000000000000000000000000000000000000000600082015250565b7f4552433732313a20617070726f76616c20746f2063757272656e74206f776e6560008201527f7200000000000000000000000000000000000000000000000000000000000000602082015250565b7f4572726f723a2043686172616374657220697320646561640000000000000000600082015250565b7f646174613a6170706c69636174696f6e2f6a736f6e3b6261736536342c000000600082015250565b7f222c20226465736372697074696f6e223a20225468697320697320616e204e4660008201527f542074686174206c6574732070656f706c6520706c617920696e20746865206760208201527f616d65204d657461766572736520536c6179657221222c2022696d616765223a60408201527f2022697066733a2f2f0000000000000000000000000000000000000000000000606082015250565b7f4552433732313a207472616e736665722063616c6c6572206973206e6f74206f60008201527f776e6572206e6f7220617070726f766564000000000000000000000000000000602082015250565b7f222c202261747472696275746573223a205b207b202274726169745f7479706560008201527f223a20224865616c746820506f696e7473222c202276616c7565223a20000000602082015250565b7f7d2c207b202274726169745f74797065223a202241747461636b2044616d616760008201527f65222c202276616c7565223a2000000000000000000000000000000000000000602082015250565b614d66816144eb565b8114614d7157600080fd5b50565b614d7d816144fd565b8114614d8857600080fd5b50565b614d9481614509565b8114614d9f57600080fd5b50565b614dab81614555565b8114614db657600080fd5b5056fe506c617965722061747461636b656420626f73732e204e657720626f73732068703a2025734142434445464748494a4b4c4d4e4f505152535455565758595a6162636465666768696a6b6c6d6e6f707172737475767778797a303132333435363738392b2f426f73732061747461636b656420706c617965722e204e657720706c617965722068703a2025730a4d696e746564204e465420772f20746f6b656e496420257320616e6420636861726163746572496e6465782025730a506c6179657220772f206368617261637465722025732061626f757420746f2061747461636b2e2048617320257320485020616e64202573204144a2646970667358221220ce2e71562edf28f6b595a00d9a9f9ad60b2e3d51206aeb5f69edd42e187da4ac64736f6c63430008040033446f6e6520696e697469616c697a696e6720257320772f2048502025732c20696d67202573446f6e6520696e697469616c697a696e6720626f737320257320772f2048502025732c20696d67202573",
  "linkReferences": {},
  "deployedLinkReferences": {}
}